{
  "_format": "hh-sol-artifact-1",
  "contractName": "PancakeRouter01",
  "sourceName": "contracts/PancakeRouter01.sol",
  "abi": [
    {
      "inputs": [
        {
          "internalType": "address",
          "name": "_factory",
          "type": "address"
        },
        {
          "internalType": "address",
          "name": "_WETH",
          "type": "address"
        }
      ],
      "stateMutability": "nonpayable",
      "type": "constructor"
    },
    {
      "inputs": [],
      "name": "WETH",
      "outputs": [
        {
          "internalType": "address",
          "name": "",
          "type": "address"
        }
      ],
      "stateMutability": "view",
      "type": "function"
    },
    {
      "inputs": [
        {
          "internalType": "address",
          "name": "tokenA",
          "type": "address"
        },
        {
          "internalType": "address",
          "name": "tokenB",
          "type": "address"
        },
        {
          "internalType": "uint256",
          "name": "amountADesired",
          "type": "uint256"
        },
        {
          "internalType": "uint256",
          "name": "amountBDesired",
          "type": "uint256"
        },
        {
          "internalType": "uint256",
          "name": "amountAMin",
          "type": "uint256"
        },
        {
          "internalType": "uint256",
          "name": "amountBMin",
          "type": "uint256"
        },
        {
          "internalType": "address",
          "name": "to",
          "type": "address"
        },
        {
          "internalType": "uint256",
          "name": "deadline",
          "type": "uint256"
        }
      ],
      "name": "addLiquidity",
      "outputs": [
        {
          "internalType": "uint256",
          "name": "amountA",
          "type": "uint256"
        },
        {
          "internalType": "uint256",
          "name": "amountB",
          "type": "uint256"
        },
        {
          "internalType": "uint256",
          "name": "liquidity",
          "type": "uint256"
        }
      ],
      "stateMutability": "nonpayable",
      "type": "function"
    },
    {
      "inputs": [
        {
          "internalType": "address",
          "name": "token",
          "type": "address"
        },
        {
          "internalType": "uint256",
          "name": "amountTokenDesired",
          "type": "uint256"
        },
        {
          "internalType": "uint256",
          "name": "amountTokenMin",
          "type": "uint256"
        },
        {
          "internalType": "uint256",
          "name": "amountETHMin",
          "type": "uint256"
        },
        {
          "internalType": "address",
          "name": "to",
          "type": "address"
        },
        {
          "internalType": "uint256",
          "name": "deadline",
          "type": "uint256"
        }
      ],
      "name": "addLiquidityETH",
      "outputs": [
        {
          "internalType": "uint256",
          "name": "amountToken",
          "type": "uint256"
        },
        {
          "internalType": "uint256",
          "name": "amountETH",
          "type": "uint256"
        },
        {
          "internalType": "uint256",
          "name": "liquidity",
          "type": "uint256"
        }
      ],
      "stateMutability": "payable",
      "type": "function"
    },
    {
      "inputs": [],
      "name": "factory",
      "outputs": [
        {
          "internalType": "address",
          "name": "",
          "type": "address"
        }
      ],
      "stateMutability": "view",
      "type": "function"
    },
    {
      "inputs": [
        {
          "internalType": "uint256",
          "name": "amountOut",
          "type": "uint256"
        },
        {
          "internalType": "uint256",
          "name": "reserveIn",
          "type": "uint256"
        },
        {
          "internalType": "uint256",
          "name": "reserveOut",
          "type": "uint256"
        }
      ],
      "name": "getAmountIn",
      "outputs": [
        {
          "internalType": "uint256",
          "name": "amountIn",
          "type": "uint256"
        }
      ],
      "stateMutability": "pure",
      "type": "function"
    },
    {
      "inputs": [
        {
          "internalType": "uint256",
          "name": "amountIn",
          "type": "uint256"
        },
        {
          "internalType": "uint256",
          "name": "reserveIn",
          "type": "uint256"
        },
        {
          "internalType": "uint256",
          "name": "reserveOut",
          "type": "uint256"
        }
      ],
      "name": "getAmountOut",
      "outputs": [
        {
          "internalType": "uint256",
          "name": "amountOut",
          "type": "uint256"
        }
      ],
      "stateMutability": "pure",
      "type": "function"
    },
    {
      "inputs": [
        {
          "internalType": "uint256",
          "name": "amountOut",
          "type": "uint256"
        },
        {
          "internalType": "address[]",
          "name": "path",
          "type": "address[]"
        }
      ],
      "name": "getAmountsIn",
      "outputs": [
        {
          "internalType": "uint256[]",
          "name": "amounts",
          "type": "uint256[]"
        }
      ],
      "stateMutability": "view",
      "type": "function"
    },
    {
      "inputs": [
        {
          "internalType": "uint256",
          "name": "amountIn",
          "type": "uint256"
        },
        {
          "internalType": "address[]",
          "name": "path",
          "type": "address[]"
        }
      ],
      "name": "getAmountsOut",
      "outputs": [
        {
          "internalType": "uint256[]",
          "name": "amounts",
          "type": "uint256[]"
        }
      ],
      "stateMutability": "view",
      "type": "function"
    },
    {
      "inputs": [
        {
          "internalType": "address",
          "name": "token0",
          "type": "address"
        },
        {
          "internalType": "address",
          "name": "token1",
          "type": "address"
        }
      ],
      "name": "pairFor",
      "outputs": [
        {
          "internalType": "address",
          "name": "pair",
          "type": "address"
        }
      ],
      "stateMutability": "view",
      "type": "function"
    },
    {
      "inputs": [
        {
          "internalType": "uint256",
          "name": "amountA",
          "type": "uint256"
        },
        {
          "internalType": "uint256",
          "name": "reserveA",
          "type": "uint256"
        },
        {
          "internalType": "uint256",
          "name": "reserveB",
          "type": "uint256"
        }
      ],
      "name": "quote",
      "outputs": [
        {
          "internalType": "uint256",
          "name": "amountB",
          "type": "uint256"
        }
      ],
      "stateMutability": "pure",
      "type": "function"
    },
    {
      "inputs": [
        {
          "internalType": "address",
          "name": "tokenA",
          "type": "address"
        },
        {
          "internalType": "address",
          "name": "tokenB",
          "type": "address"
        },
        {
          "internalType": "uint256",
          "name": "liquidity",
          "type": "uint256"
        },
        {
          "internalType": "uint256",
          "name": "amountAMin",
          "type": "uint256"
        },
        {
          "internalType": "uint256",
          "name": "amountBMin",
          "type": "uint256"
        },
        {
          "internalType": "address",
          "name": "to",
          "type": "address"
        },
        {
          "internalType": "uint256",
          "name": "deadline",
          "type": "uint256"
        }
      ],
      "name": "removeLiquidity",
      "outputs": [
        {
          "internalType": "uint256",
          "name": "amountA",
          "type": "uint256"
        },
        {
          "internalType": "uint256",
          "name": "amountB",
          "type": "uint256"
        }
      ],
      "stateMutability": "nonpayable",
      "type": "function"
    },
    {
      "inputs": [
        {
          "internalType": "address",
          "name": "token",
          "type": "address"
        },
        {
          "internalType": "uint256",
          "name": "liquidity",
          "type": "uint256"
        },
        {
          "internalType": "uint256",
          "name": "amountTokenMin",
          "type": "uint256"
        },
        {
          "internalType": "uint256",
          "name": "amountETHMin",
          "type": "uint256"
        },
        {
          "internalType": "address",
          "name": "to",
          "type": "address"
        },
        {
          "internalType": "uint256",
          "name": "deadline",
          "type": "uint256"
        }
      ],
      "name": "removeLiquidityETH",
      "outputs": [
        {
          "internalType": "uint256",
          "name": "amountToken",
          "type": "uint256"
        },
        {
          "internalType": "uint256",
          "name": "amountETH",
          "type": "uint256"
        }
      ],
      "stateMutability": "nonpayable",
      "type": "function"
    },
    {
      "inputs": [
        {
          "internalType": "address",
          "name": "token",
          "type": "address"
        },
        {
          "internalType": "uint256",
          "name": "liquidity",
          "type": "uint256"
        },
        {
          "internalType": "uint256",
          "name": "amountTokenMin",
          "type": "uint256"
        },
        {
          "internalType": "uint256",
          "name": "amountETHMin",
          "type": "uint256"
        },
        {
          "internalType": "address",
          "name": "to",
          "type": "address"
        },
        {
          "internalType": "uint256",
          "name": "deadline",
          "type": "uint256"
        },
        {
          "internalType": "bool",
          "name": "approveMax",
          "type": "bool"
        },
        {
          "internalType": "uint8",
          "name": "v",
          "type": "uint8"
        },
        {
          "internalType": "bytes32",
          "name": "r",
          "type": "bytes32"
        },
        {
          "internalType": "bytes32",
          "name": "s",
          "type": "bytes32"
        }
      ],
      "name": "removeLiquidityETHWithPermit",
      "outputs": [
        {
          "internalType": "uint256",
          "name": "amountToken",
          "type": "uint256"
        },
        {
          "internalType": "uint256",
          "name": "amountETH",
          "type": "uint256"
        }
      ],
      "stateMutability": "nonpayable",
      "type": "function"
    },
    {
      "inputs": [
        {
          "internalType": "address",
          "name": "tokenA",
          "type": "address"
        },
        {
          "internalType": "address",
          "name": "tokenB",
          "type": "address"
        },
        {
          "internalType": "uint256",
          "name": "liquidity",
          "type": "uint256"
        },
        {
          "internalType": "uint256",
          "name": "amountAMin",
          "type": "uint256"
        },
        {
          "internalType": "uint256",
          "name": "amountBMin",
          "type": "uint256"
        },
        {
          "internalType": "address",
          "name": "to",
          "type": "address"
        },
        {
          "internalType": "uint256",
          "name": "deadline",
          "type": "uint256"
        },
        {
          "internalType": "bool",
          "name": "approveMax",
          "type": "bool"
        },
        {
          "internalType": "uint8",
          "name": "v",
          "type": "uint8"
        },
        {
          "internalType": "bytes32",
          "name": "r",
          "type": "bytes32"
        },
        {
          "internalType": "bytes32",
          "name": "s",
          "type": "bytes32"
        }
      ],
      "name": "removeLiquidityWithPermit",
      "outputs": [
        {
          "internalType": "uint256",
          "name": "amountA",
          "type": "uint256"
        },
        {
          "internalType": "uint256",
          "name": "amountB",
          "type": "uint256"
        }
      ],
      "stateMutability": "nonpayable",
      "type": "function"
    },
    {
      "inputs": [
        {
          "internalType": "uint256",
          "name": "amountOut",
          "type": "uint256"
        },
        {
          "internalType": "address[]",
          "name": "path",
          "type": "address[]"
        },
        {
          "internalType": "address",
          "name": "to",
          "type": "address"
        },
        {
          "internalType": "uint256",
          "name": "deadline",
          "type": "uint256"
        }
      ],
      "name": "swapETHForExactTokens",
      "outputs": [
        {
          "internalType": "uint256[]",
          "name": "amounts",
          "type": "uint256[]"
        }
      ],
      "stateMutability": "payable",
      "type": "function"
    },
    {
      "inputs": [
        {
          "internalType": "uint256",
          "name": "amountOutMin",
          "type": "uint256"
        },
        {
          "internalType": "address[]",
          "name": "path",
          "type": "address[]"
        },
        {
          "internalType": "address",
          "name": "to",
          "type": "address"
        },
        {
          "internalType": "uint256",
          "name": "deadline",
          "type": "uint256"
        }
      ],
      "name": "swapExactETHForTokens",
      "outputs": [
        {
          "internalType": "uint256[]",
          "name": "amounts",
          "type": "uint256[]"
        }
      ],
      "stateMutability": "payable",
      "type": "function"
    },
    {
      "inputs": [
        {
          "internalType": "uint256",
          "name": "amountIn",
          "type": "uint256"
        },
        {
          "internalType": "uint256",
          "name": "amountOutMin",
          "type": "uint256"
        },
        {
          "internalType": "address[]",
          "name": "path",
          "type": "address[]"
        },
        {
          "internalType": "address",
          "name": "to",
          "type": "address"
        },
        {
          "internalType": "uint256",
          "name": "deadline",
          "type": "uint256"
        }
      ],
      "name": "swapExactTokensForETH",
      "outputs": [
        {
          "internalType": "uint256[]",
          "name": "amounts",
          "type": "uint256[]"
        }
      ],
      "stateMutability": "nonpayable",
      "type": "function"
    },
    {
      "inputs": [
        {
          "internalType": "uint256",
          "name": "amountIn",
          "type": "uint256"
        },
        {
          "internalType": "uint256",
          "name": "amountOutMin",
          "type": "uint256"
        },
        {
          "internalType": "address[]",
          "name": "path",
          "type": "address[]"
        },
        {
          "internalType": "address",
          "name": "to",
          "type": "address"
        },
        {
          "internalType": "uint256",
          "name": "deadline",
          "type": "uint256"
        }
      ],
      "name": "swapExactTokensForTokens",
      "outputs": [
        {
          "internalType": "uint256[]",
          "name": "amounts",
          "type": "uint256[]"
        }
      ],
      "stateMutability": "nonpayable",
      "type": "function"
    },
    {
      "inputs": [
        {
          "internalType": "uint256",
          "name": "amountOut",
          "type": "uint256"
        },
        {
          "internalType": "uint256",
          "name": "amountInMax",
          "type": "uint256"
        },
        {
          "internalType": "address[]",
          "name": "path",
          "type": "address[]"
        },
        {
          "internalType": "address",
          "name": "to",
          "type": "address"
        },
        {
          "internalType": "uint256",
          "name": "deadline",
          "type": "uint256"
        }
      ],
      "name": "swapTokensForExactETH",
      "outputs": [
        {
          "internalType": "uint256[]",
          "name": "amounts",
          "type": "uint256[]"
        }
      ],
      "stateMutability": "nonpayable",
      "type": "function"
    },
    {
      "inputs": [
        {
          "internalType": "uint256",
          "name": "amountOut",
          "type": "uint256"
        },
        {
          "internalType": "uint256",
          "name": "amountInMax",
          "type": "uint256"
        },
        {
          "internalType": "address[]",
          "name": "path",
          "type": "address[]"
        },
        {
          "internalType": "address",
          "name": "to",
          "type": "address"
        },
        {
          "internalType": "uint256",
          "name": "deadline",
          "type": "uint256"
        }
      ],
      "name": "swapTokensForExactTokens",
      "outputs": [
        {
          "internalType": "uint256[]",
          "name": "amounts",
          "type": "uint256[]"
        }
      ],
      "stateMutability": "nonpayable",
      "type": "function"
    },
    {
      "stateMutability": "payable",
      "type": "receive"
    }
  ],
  "bytecode": "0x60c060405234801561001057600080fd5b506040516136863803806136868339818101604052604081101561003357600080fd5b5080516020909101516001600160601b0319606092831b8116608052911b1660a05260805160601c60a05160601c613545610141600039806101335280610a475280610a825280610b795280610d97528061112152806112a552806113eb528061147352806116f552806119e55280611c585280611cae5280611ce25280611d565280611ef6528061203952806120c1525080610c075280610cde5280610e5d5280610e965280610fd152806111af528061133852806114a5528061161852806116cd5280611772528061196a528061199352806119c35280611b305280611c8c5280611f8952806120f3528061299a52806129dd5280612e245280612ed25280612f5252506135456000f3fe6080604052600436106101235760003560e01c806396ed28f9116100a0578063d06ca61f11610064578063d06ca61f14610788578063ded9382a1461083d578063e8e33700146108b0578063f305d71914610930578063fb3bdb41146109765761015c565b806396ed28f914610674578063ad5c4648146106cb578063ad615dec146106e0578063baa2abde14610716578063c45a0155146107735761015c565b806338ed1739116100e757806338ed17391461042e5780634a25d94a146104c45780637ff36ab51461055a57806385f8c259146101cd5780638803dbee146105de5761015c565b806302751cec14610161578063054d50d4146101cd57806318cbafe5146102155780631f00ca74146102fb5780632195995c146103b05761015c565b3661015c57336001600160a01b037f0000000000000000000000000000000000000000000000000000000000000000161461015a57fe5b005b600080fd5b34801561016d57600080fd5b506101b4600480360360c081101561018457600080fd5b506001600160a01b0381358116916020810135916040820135916060810135916080820135169060a001356109fa565b6040805192835260208301919091528051918290030190f35b3480156101d957600080fd5b50610203600480360360608110156101f057600080fd5b5080359060208101359060400135610b14565b60408051918252519081900360200190f35b34801561022157600080fd5b506102ab600480360360a081101561023857600080fd5b813591602081013591810190606081016040820135600160201b81111561025e57600080fd5b82018360208201111561027057600080fd5b803590602001918460208302840111600160201b8311171561029157600080fd5b91935091506001600160a01b038135169060200135610b29565b60408051602080825283518183015283519192839290830191858101910280838360005b838110156102e75781810151838201526020016102cf565b505050509050019250505060405180910390f35b34801561030757600080fd5b506102ab6004803603604081101561031e57600080fd5b81359190810190604081016020820135600160201b81111561033f57600080fd5b82018360208201111561035157600080fd5b803590602001918460208302840111600160201b8311171561037257600080fd5b919080806020026020016040519081016040528093929190818152602001838360200280828437600092019190915250929550610e56945050505050565b3480156103bc57600080fd5b506101b460048036036101608110156103d457600080fd5b506001600160a01b038135811691602081013582169160408201359160608101359160808201359160a08101359091169060c08101359060e081013515159060ff6101008201351690610120810135906101400135610e8c565b34801561043a57600080fd5b506102ab600480360360a081101561045157600080fd5b813591602081013591810190606081016040820135600160201b81111561047757600080fd5b82018360208201111561048957600080fd5b803590602001918460208302840111600160201b831117156104aa57600080fd5b91935091506001600160a01b038135169060200135610f86565b3480156104d057600080fd5b506102ab600480360360a08110156104e757600080fd5b813591602081013591810190606081016040820135600160201b81111561050d57600080fd5b82018360208201111561051f57600080fd5b803590602001918460208302840111600160201b8311171561054057600080fd5b91935091506001600160a01b0381351690602001356110d1565b6102ab6004803603608081101561057057600080fd5b81359190810190604081016020820135600160201b81111561059157600080fd5b8201836020820111156105a357600080fd5b803590602001918460208302840111600160201b831117156105c457600080fd5b91935091506001600160a01b03813516906020013561125d565b3480156105ea57600080fd5b506102ab600480360360a081101561060157600080fd5b813591602081013591810190606081016040820135600160201b81111561062757600080fd5b82018360208201111561063957600080fd5b803590602001918460208302840111600160201b8311171561065a57600080fd5b91935091506001600160a01b0381351690602001356115cd565b34801561068057600080fd5b506106af6004803603604081101561069757600080fd5b506001600160a01b03813581169160200135166116c6565b604080516001600160a01b039092168252519081900360200190f35b3480156106d757600080fd5b506106af6116f3565b3480156106ec57600080fd5b506102036004803603606081101561070357600080fd5b5080359060208101359060400135611717565b34801561072257600080fd5b506101b4600480360360e081101561073957600080fd5b506001600160a01b038135811691602081013582169160408201359160608101359160808201359160a08101359091169060c00135611724565b34801561077f57600080fd5b506106af611968565b34801561079457600080fd5b506102ab600480360360408110156107ab57600080fd5b81359190810190604081016020820135600160201b8111156107cc57600080fd5b8201836020820111156107de57600080fd5b803590602001918460208302840111600160201b831117156107ff57600080fd5b91908080602002602001604051908101604052809392919081815260200183836020028082843760009201919091525092955061198c945050505050565b34801561084957600080fd5b506101b4600480360361014081101561086157600080fd5b506001600160a01b0381358116916020810135916040820135916060810135916080820135169060a08101359060c081013515159060ff60e082013516906101008101359061012001356119b9565b3480156108bc57600080fd5b5061091260048036036101008110156108d457600080fd5b506001600160a01b038135811691602081013582169160408201359160608101359160808201359160a08101359160c0820135169060e00135611acd565b60408051938452602084019290925282820152519081900360600190f35b610912600480360360c081101561094657600080fd5b506001600160a01b0381358116916020810135916040820135916060810135916080820135169060a00135611c09565b6102ab6004803603608081101561098c57600080fd5b81359190810190604081016020820135600160201b8111156109ad57600080fd5b8201836020820111156109bf57600080fd5b803590602001918460208302840111600160201b831117156109e057600080fd5b91935091506001600160a01b038135169060200135611eae565b6000808242811015610a41576040805162461bcd60e51b81526020600482015260166024820152600080516020613387833981519152604482015290519081900360640190fd5b610a70897f00000000000000000000000000000000000000000000000000000000000000008a8a8a308a611724565b9093509150610a80898685612230565b7f00000000000000000000000000000000000000000000000000000000000000006001600160a01b0316632e1a7d4d836040518263ffffffff1660e01b815260040180828152602001915050600060405180830381600087803b158015610ae657600080fd5b505af1158015610afa573d6000803e3d6000fd5b50505050610b08858361239a565b50965096945050505050565b6000610b21848484612492565b949350505050565b60608142811015610b6f576040805162461bcd60e51b81526020600482015260166024820152600080516020613387833981519152604482015290519081900360640190fd5b6001600160a01b037f00000000000000000000000000000000000000000000000000000000000000001686866000198101818110610ba957fe5b905060200201356001600160a01b03166001600160a01b031614610c02576040805162461bcd60e51b815260206004820152601b60248201526000805160206133f3833981519152604482015290519081900360640190fd5b610c607f00000000000000000000000000000000000000000000000000000000000000008988888080602002602001604051908101604052809392919081815260200183836020028082843760009201919091525061258292505050565b91508682600184510381518110610c7357fe5b60200260200101511015610cb85760405162461bcd60e51b81526004018080602001828103825260298152602001806133a76029913960400191505060405180910390fd5b610d5686866000818110610cc857fe5b905060200201356001600160a01b031633610d3c7f00000000000000000000000000000000000000000000000000000000000000008a8a6000818110610d0a57fe5b905060200201356001600160a01b03168b8b6001818110610d2757fe5b905060200201356001600160a01b03166126ce565b85600081518110610d4957fe5b602002602001015161278e565b610d95828787808060200260200160405190810160405280939291908181526020018383602002808284376000920191909152503092506128eb915050565b7f00000000000000000000000000000000000000000000000000000000000000006001600160a01b0316632e1a7d4d83600185510381518110610dd457fe5b60200260200101516040518263ffffffff1660e01b815260040180828152602001915050600060405180830381600087803b158015610e1257600080fd5b505af1158015610e26573d6000803e3d6000fd5b50505050610e4b8483600185510381518110610e3e57fe5b602002602001015161239a565b509695505050505050565b6060610e837f00000000000000000000000000000000000000000000000000000000000000008484612b31565b90505b92915050565b6000806000610ebc7f00000000000000000000000000000000000000000000000000000000000000008f8f6126ce565b9050600087610ecb578c610ecf565b6000195b6040805163d505accf60e01b815233600482015230602482015260448101839052606481018c905260ff8a16608482015260a4810189905260c4810188905290519192506001600160a01b0384169163d505accf9160e48082019260009290919082900301818387803b158015610f4557600080fd5b505af1158015610f59573d6000803e3d6000fd5b50505050610f6c8f8f8f8f8f8f8f611724565b809450819550505050509b509b9950505050505050505050565b60608142811015610fcc576040805162461bcd60e51b81526020600482015260166024820152600080516020613387833981519152604482015290519081900360640190fd5b61102a7f00000000000000000000000000000000000000000000000000000000000000008988888080602002602001604051908101604052809392919081815260200183836020028082843760009201919091525061258292505050565b9150868260018451038151811061103d57fe5b602002602001015110156110825760405162461bcd60e51b81526004018080602001828103825260298152602001806133a76029913960400191505060405180910390fd5b61109286866000818110610cc857fe5b610e4b828787808060200260200160405190810160405280939291908181526020018383602002808284376000920191909152508992506128eb915050565b60608142811015611117576040805162461bcd60e51b81526020600482015260166024820152600080516020613387833981519152604482015290519081900360640190fd5b6001600160a01b037f0000000000000000000000000000000000000000000000000000000000000000168686600019810181811061115157fe5b905060200201356001600160a01b03166001600160a01b0316146111aa576040805162461bcd60e51b815260206004820152601b60248201526000805160206133f3833981519152604482015290519081900360640190fd5b6112087f000000000000000000000000000000000000000000000000000000000000000089888880806020026020016040519081016040528093929190818152602001838360200280828437600092019190915250612b3192505050565b9150868260008151811061121857fe5b60200260200101511115610cb85760405162461bcd60e51b815260040180806020018281038252602581526020018061347d6025913960400191505060405180910390fd5b606081428110156112a3576040805162461bcd60e51b81526020600482015260166024820152600080516020613387833981519152604482015290519081900360640190fd5b7f00000000000000000000000000000000000000000000000000000000000000006001600160a01b0316868660008181106112da57fe5b905060200201356001600160a01b03166001600160a01b031614611333576040805162461bcd60e51b815260206004820152601b60248201526000805160206133f3833981519152604482015290519081900360640190fd5b6113917f00000000000000000000000000000000000000000000000000000000000000003488888080602002602001604051908101604052809392919081815260200183836020028082843760009201919091525061258292505050565b915086826001845103815181106113a457fe5b602002602001015110156113e95760405162461bcd60e51b81526004018080602001828103825260298152602001806133a76029913960400191505060405180910390fd5b7f00000000000000000000000000000000000000000000000000000000000000006001600160a01b031663d0e30db08360008151811061142557fe5b60200260200101516040518263ffffffff1660e01b81526004016000604051808303818588803b15801561145857600080fd5b505af115801561146c573d6000803e3d6000fd5b50505050507f00000000000000000000000000000000000000000000000000000000000000006001600160a01b031663a9059cbb6114ee7f0000000000000000000000000000000000000000000000000000000000000000898960008181106114d157fe5b905060200201356001600160a01b03168a8a6001818110610d2757fe5b846000815181106114fb57fe5b60200260200101516040518363ffffffff1660e01b815260040180836001600160a01b03166001600160a01b0316815260200182815260200192505050602060405180830381600087803b15801561155257600080fd5b505af1158015611566573d6000803e3d6000fd5b505050506040513d602081101561157c57600080fd5b505161158457fe5b6115c3828787808060200260200160405190810160405280939291908181526020018383602002808284376000920191909152508992506128eb915050565b5095945050505050565b60608142811015611613576040805162461bcd60e51b81526020600482015260166024820152600080516020613387833981519152604482015290519081900360640190fd5b6116717f000000000000000000000000000000000000000000000000000000000000000089888880806020026020016040519081016040528093929190818152602001838360200280828437600092019190915250612b3192505050565b9150868260008151811061168157fe5b602002602001015111156110825760405162461bcd60e51b815260040180806020018281038252602581526020018061347d6025913960400191505060405180910390fd5b6000610e837f000000000000000000000000000000000000000000000000000000000000000084846126ce565b7f000000000000000000000000000000000000000000000000000000000000000081565b6000610b21848484612c69565b600080824281101561176b576040805162461bcd60e51b81526020600482015260166024820152600080516020613387833981519152604482015290519081900360640190fd5b60006117987f00000000000000000000000000000000000000000000000000000000000000008c8c6126ce565b604080516323b872dd60e01b81523360048201526001600160a01b03831660248201819052604482018d9052915192935090916323b872dd916064808201926020929091908290030181600087803b1580156117f357600080fd5b505af1158015611807573d6000803e3d6000fd5b505050506040513d602081101561181d57600080fd5b50506040805163226bf2d160e21b81526001600160a01b03888116600483015282516000938493928616926389afcb44926024808301939282900301818787803b15801561186a57600080fd5b505af115801561187e573d6000803e3d6000fd5b505050506040513d604081101561189457600080fd5b508051602090910151909250905060006118ae8e8e612d15565b509050806001600160a01b03168e6001600160a01b0316146118d15781836118d4565b82825b90975095508a8710156119185760405162461bcd60e51b81526004018080602001828103825260248152602001806134136024913960400191505060405180910390fd5b898610156119575760405162461bcd60e51b81526004018080602001828103825260248152602001806134ec6024913960400191505060405180910390fd5b505050505097509795505050505050565b7f000000000000000000000000000000000000000000000000000000000000000081565b6060610e837f00000000000000000000000000000000000000000000000000000000000000008484612582565b6000806000611a097f00000000000000000000000000000000000000000000000000000000000000008e7f00000000000000000000000000000000000000000000000000000000000000006126ce565b9050600087611a18578c611a1c565b6000195b6040805163d505accf60e01b815233600482015230602482015260448101839052606481018c905260ff8a16608482015260a4810189905260c4810188905290519192506001600160a01b0384169163d505accf9160e48082019260009290919082900301818387803b158015611a9257600080fd5b505af1158015611aa6573d6000803e3d6000fd5b50505050611ab88e8e8e8e8e8e6109fa565b909f909e509c50505050505050505050505050565b60008060008342811015611b16576040805162461bcd60e51b81526020600482015260166024820152600080516020613387833981519152604482015290519081900360640190fd5b611b248c8c8c8c8c8c612df3565b90945092506000611b567f00000000000000000000000000000000000000000000000000000000000000008e8e6126ce565b9050611b648d33838861278e565b611b708c33838761278e565b806001600160a01b0316636a627842886040518263ffffffff1660e01b815260040180826001600160a01b03166001600160a01b03168152602001915050602060405180830381600087803b158015611bc857600080fd5b505af1158015611bdc573d6000803e3d6000fd5b505050506040513d6020811015611bf257600080fd5b5051949d939c50939a509198505050505050505050565b60008060008342811015611c52576040805162461bcd60e51b81526020600482015260166024820152600080516020613387833981519152604482015290519081900360640190fd5b611c808a7f00000000000000000000000000000000000000000000000000000000000000008b348c8c612df3565b90945092506000611cd27f00000000000000000000000000000000000000000000000000000000000000008c7f00000000000000000000000000000000000000000000000000000000000000006126ce565b9050611ce08b33838861278e565b7f00000000000000000000000000000000000000000000000000000000000000006001600160a01b031663d0e30db0856040518263ffffffff1660e01b81526004016000604051808303818588803b158015611d3b57600080fd5b505af1158015611d4f573d6000803e3d6000fd5b50505050507f00000000000000000000000000000000000000000000000000000000000000006001600160a01b031663a9059cbb82866040518363ffffffff1660e01b815260040180836001600160a01b03166001600160a01b0316815260200182815260200192505050602060405180830381600087803b158015611dd457600080fd5b505af1158015611de8573d6000803e3d6000fd5b505050506040513d6020811015611dfe57600080fd5b5051611e0657fe5b806001600160a01b0316636a627842886040518263ffffffff1660e01b815260040180826001600160a01b03166001600160a01b03168152602001915050602060405180830381600087803b158015611e5e57600080fd5b505af1158015611e72573d6000803e3d6000fd5b505050506040513d6020811015611e8857600080fd5b5051925034841015611ea057611ea03385340361239a565b505096509650969350505050565b60608142811015611ef4576040805162461bcd60e51b81526020600482015260166024820152600080516020613387833981519152604482015290519081900360640190fd5b7f00000000000000000000000000000000000000000000000000000000000000006001600160a01b031686866000818110611f2b57fe5b905060200201356001600160a01b03166001600160a01b031614611f84576040805162461bcd60e51b815260206004820152601b60248201526000805160206133f3833981519152604482015290519081900360640190fd5b611fe27f000000000000000000000000000000000000000000000000000000000000000088888880806020026020016040519081016040528093929190818152602001838360200280828437600092019190915250612b3192505050565b91503482600081518110611ff257fe5b602002602001015111156120375760405162461bcd60e51b815260040180806020018281038252602581526020018061347d6025913960400191505060405180910390fd5b7f00000000000000000000000000000000000000000000000000000000000000006001600160a01b031663d0e30db08360008151811061207357fe5b60200260200101516040518263ffffffff1660e01b81526004016000604051808303818588803b1580156120a657600080fd5b505af11580156120ba573d6000803e3d6000fd5b50505050507f00000000000000000000000000000000000000000000000000000000000000006001600160a01b031663a9059cbb61211f7f0000000000000000000000000000000000000000000000000000000000000000898960008181106114d157fe5b8460008151811061212c57fe5b60200260200101516040518363ffffffff1660e01b815260040180836001600160a01b03166001600160a01b0316815260200182815260200192505050602060405180830381600087803b15801561218357600080fd5b505af1158015612197573d6000803e3d6000fd5b505050506040513d60208110156121ad57600080fd5b50516121b557fe5b6121f4828787808060200260200160405190810160405280939291908181526020018383602002808284376000920191909152508992506128eb915050565b8160008151811061220157fe5b60200260200101513411156115c3576115c3338360008151811061222157fe5b6020026020010151340361239a565b604080516001600160a01b038481166024830152604480830185905283518084039091018152606490920183526020820180516001600160e01b031663a9059cbb60e01b178152925182516000946060949389169392918291908083835b602083106122ad5780518252601f19909201916020918201910161228e565b6001836020036101000a0380198251168184511680821785525050505050509050019150506000604051808303816000865af19150503d806000811461230f576040519150601f19603f3d011682016040523d82523d6000602084013e612314565b606091505b5091509150818015612342575080511580612342575080806020019051602081101561233f57600080fd5b50515b612393576040805162461bcd60e51b815260206004820152601f60248201527f5472616e7366657248656c7065723a205452414e534645525f4641494c454400604482015290519081900360640190fd5b5050505050565b604080516000808252602082019092526001600160a01b0384169083906040518082805190602001908083835b602083106123e65780518252601f1990920191602091820191016123c7565b6001836020036101000a03801982511681845116808217855250505050505090500191505060006040518083038185875af1925050503d8060008114612448576040519150601f19603f3d011682016040523d82523d6000602084013e61244d565b606091505b505090508061248d5760405162461bcd60e51b815260040180806020018281038252602381526020018061345a6023913960400191505060405180910390fd5b505050565b60008084116124d25760405162461bcd60e51b81526004018080602001828103825260298152602001806133346029913960400191505060405180910390fd5b6000831180156124e25750600082115b61251d5760405162461bcd60e51b81526004018080602001828103825260268152602001806134a26026913960400191505060405180910390fd5b6000612531856103e663ffffffff61306716565b90506000612545828563ffffffff61306716565b9050600061256b8361255f886103e863ffffffff61306716565b9063ffffffff6130ca16565b905080828161257657fe5b04979650505050505050565b60606002825110156125db576040805162461bcd60e51b815260206004820152601c60248201527f50616e63616b654c6962726172793a20494e56414c49445f5041544800000000604482015290519081900360640190fd5b815167ffffffffffffffff811180156125f357600080fd5b5060405190808252806020026020018201604052801561261d578160200160208202803683370190505b509050828160008151811061262e57fe5b60200260200101818152505060005b60018351038110156126c6576000806126808786858151811061265c57fe5b602002602001015187866001018151811061267357fe5b6020026020010151613119565b915091506126a284848151811061269357fe5b60200260200101518383612492565b8484600101815181106126b157fe5b6020908102919091010152505060010161263d565b509392505050565b60008060006126dd8585612d15565b604080516bffffffffffffffffffffffff19606094851b811660208084019190915293851b81166034830152825160288184030181526048830184528051908501206001600160f81b031960688401529a90941b9093166069840152607d8301989098527fa70eeb9bb3b548bd3404057cd53405c892d49801acca673e77238beb06b75b15609d808401919091528851808403909101815260bd909201909752805196019590952095945050505050565b604080516001600160a01b0385811660248301528481166044830152606480830185905283518084039091018152608490920183526020820180516001600160e01b03166323b872dd60e01b17815292518251600094606094938a169392918291908083835b602083106128135780518252601f1990920191602091820191016127f4565b6001836020036101000a0380198251168184511680821785525050505050509050019150506000604051808303816000865af19150503d8060008114612875576040519150601f19603f3d011682016040523d82523d6000602084013e61287a565b606091505b50915091508180156128a85750805115806128a857508080602001905160208110156128a557600080fd5b50515b6128e35760405162461bcd60e51b81526004018080602001828103825260248152602001806134c86024913960400191505060405180910390fd5b505050505050565b60005b6001835103811015612b2b5760008084838151811061290957fe5b602002602001015185846001018151811061292057fe5b60200260200101519150915060006129388383612d15565b509050600087856001018151811061294c57fe5b60200260200101519050600080836001600160a01b0316866001600160a01b03161461297a5782600061297e565b6000835b91509150600060028a5103881061299557886129d6565b6129d67f0000000000000000000000000000000000000000000000000000000000000000878c8b600201815181106129c957fe5b60200260200101516126ce565b9050612a037f000000000000000000000000000000000000000000000000000000000000000088886126ce565b6001600160a01b031663022c0d9f84848460006040519080825280601f01601f191660200182016040528015612a40576020820181803683370190505b506040518563ffffffff1660e01b815260040180858152602001848152602001836001600160a01b03166001600160a01b0316815260200180602001828103825283818151815260200191508051906020019080838360005b83811015612ab1578181015183820152602001612a99565b50505050905090810190601f168015612ade5780820380516001836020036101000a031916815260200191505b5095505050505050600060405180830381600087803b158015612b0057600080fd5b505af1158015612b14573d6000803e3d6000fd5b5050600190990198506128ee975050505050505050565b50505050565b6060600282511015612b8a576040805162461bcd60e51b815260206004820152601c60248201527f50616e63616b654c6962726172793a20494e56414c49445f5041544800000000604482015290519081900360640190fd5b815167ffffffffffffffff81118015612ba257600080fd5b50604051908082528060200260200182016040528015612bcc578160200160208202803683370190505b5090508281600183510381518110612be057fe5b60209081029190910101528151600019015b80156126c657600080612c2287866001860381518110612c0e57fe5b602002602001015187868151811061267357fe5b91509150612c44848481518110612c3557fe5b602002602001015183836131f3565b846001850381518110612c5357fe5b6020908102919091010152505060001901612bf2565b6000808411612ca95760405162461bcd60e51b81526004018080602001828103825260238152602001806134376023913960400191505060405180910390fd5b600083118015612cb95750600082115b612cf45760405162461bcd60e51b81526004018080602001828103825260268152602001806134a26026913960400191505060405180910390fd5b82612d05858463ffffffff61306716565b81612d0c57fe5b04949350505050565b600080826001600160a01b0316846001600160a01b03161415612d695760405162461bcd60e51b81526004018080602001828103825260238152602001806133d06023913960400191505060405180910390fd5b826001600160a01b0316846001600160a01b031610612d89578284612d8c565b83835b90925090506001600160a01b038216612dec576040805162461bcd60e51b815260206004820152601c60248201527f50616e63616b654c6962726172793a205a45524f5f4144445245535300000000604482015290519081900360640190fd5b9250929050565b6040805163e6a4390560e01b81526001600160a01b03888116600483015287811660248301529151600092839283927f00000000000000000000000000000000000000000000000000000000000000009092169163e6a4390591604480820192602092909190829003018186803b158015612e6d57600080fd5b505afa158015612e81573d6000803e3d6000fd5b505050506040513d6020811015612e9757600080fd5b50516001600160a01b03161415612f4a57604080516364e329cb60e11b81526001600160a01b038a81166004830152898116602483015291517f00000000000000000000000000000000000000000000000000000000000000009092169163c9c65396916044808201926020929091908290030181600087803b158015612f1d57600080fd5b505af1158015612f31573d6000803e3d6000fd5b505050506040513d6020811015612f4757600080fd5b50505b600080612f787f00000000000000000000000000000000000000000000000000000000000000008b8b613119565b91509150816000148015612f8a575080155b15612f9a5787935086925061305a565b6000612fa7898484612c69565b9050878111612ffa5785811015612fef5760405162461bcd60e51b81526004018080602001828103825260248152602001806134ec6024913960400191505060405180910390fd5b889450925082613058565b6000613007898486612c69565b90508981111561301357fe5b878110156130525760405162461bcd60e51b81526004018080602001828103825260248152602001806134136024913960400191505060405180910390fd5b94508793505b505b5050965096945050505050565b60008115806130825750508082028282828161307f57fe5b04145b610e86576040805162461bcd60e51b815260206004820152601460248201527364732d6d6174682d6d756c2d6f766572666c6f7760601b604482015290519081900360640190fd5b80820182811015610e86576040805162461bcd60e51b815260206004820152601460248201527364732d6d6174682d6164642d6f766572666c6f7760601b604482015290519081900360640190fd5b60008060006131288585612d15565b5090506131368686866126ce565b506000806131458888886126ce565b6001600160a01b0316630902f1ac6040518163ffffffff1660e01b815260040160606040518083038186803b15801561317d57600080fd5b505afa158015613191573d6000803e3d6000fd5b505050506040513d60608110156131a757600080fd5b5080516020909101516dffffffffffffffffffffffffffff91821693501690506001600160a01b03878116908416146131e15780826131e4565b81815b90999098509650505050505050565b60008084116132335760405162461bcd60e51b815260040180806020018281038252602a81526020018061335d602a913960400191505060405180910390fd5b6000831180156132435750600082115b61327e5760405162461bcd60e51b81526004018080602001828103825260268152602001806134a26026913960400191505060405180910390fd5b60006132a26103e8613296868863ffffffff61306716565b9063ffffffff61306716565b905060006132bc6103e6613296868963ffffffff6132e316565b90506132d960018284816132cc57fe5b049063ffffffff6130ca16565b9695505050505050565b80820382811115610e86576040805162461bcd60e51b815260206004820152601560248201527464732d6d6174682d7375622d756e646572666c6f7760581b604482015290519081900360640190fdfe50616e63616b654c6962726172793a20494e53554646494349454e545f494e5055545f414d4f554e5450616e63616b654c6962726172793a20494e53554646494349454e545f4f55545055545f414d4f554e5450616e63616b65526f757465723a20455850495245440000000000000000000050616e63616b65526f757465723a20494e53554646494349454e545f4f55545055545f414d4f554e5450616e63616b654c6962726172793a204944454e544943414c5f41444452455353455350616e63616b65526f757465723a20494e56414c49445f50415448000000000050616e63616b65526f757465723a20494e53554646494349454e545f415f414d4f554e5450616e63616b654c6962726172793a20494e53554646494349454e545f414d4f554e545472616e7366657248656c7065723a204554485f5452414e534645525f4641494c454450616e63616b65526f757465723a204558434553534956455f494e5055545f414d4f554e5450616e63616b654c6962726172793a20494e53554646494349454e545f4c49515549444954595472616e7366657248656c7065723a205452414e534645525f46524f4d5f4641494c454450616e63616b65526f757465723a20494e53554646494349454e545f425f414d4f554e54a26469706673582212202ab4041af59d2464d9c0c49a72c4fe8ae5efa5b1390b4dcba21197f498fe7f7364736f6c63430006060033",
  "linkReferences": {},
  "deployedLinkReferences": {}
}